{
  "contractName": "StakingRewards",
  "abi": [
    {
      "inputs": [
        {
          "internalType": "address",
          "name": "_rewardsToken",
          "type": "address"
        },
        {
          "internalType": "address",
          "name": "_stakingToken",
          "type": "address"
        }
      ],
      "stateMutability": "nonpayable",
      "type": "constructor"
    },
    {
      "inputs": [],
      "name": "lastUpdatedTimestamp",
      "outputs": [
        {
          "internalType": "uint256",
          "name": "",
          "type": "uint256"
        }
      ],
      "stateMutability": "view",
      "type": "function"
    },
    {
      "inputs": [
        {
          "internalType": "address",
          "name": "",
          "type": "address"
        }
      ],
      "name": "rewards",
      "outputs": [
        {
          "internalType": "uint256",
          "name": "",
          "type": "uint256"
        }
      ],
      "stateMutability": "view",
      "type": "function"
    },
    {
      "inputs": [],
      "name": "rewardsPerTokenStored",
      "outputs": [
        {
          "internalType": "uint256",
          "name": "",
          "type": "uint256"
        }
      ],
      "stateMutability": "view",
      "type": "function"
    },
    {
      "inputs": [],
      "name": "rewardsRate",
      "outputs": [
        {
          "internalType": "uint256",
          "name": "",
          "type": "uint256"
        }
      ],
      "stateMutability": "view",
      "type": "function"
    },
    {
      "inputs": [
        {
          "internalType": "address",
          "name": "",
          "type": "address"
        }
      ],
      "name": "userRewardsPerTokenDeposited",
      "outputs": [
        {
          "internalType": "uint256",
          "name": "",
          "type": "uint256"
        }
      ],
      "stateMutability": "view",
      "type": "function"
    },
    {
      "inputs": [],
      "name": "rewardPerToken",
      "outputs": [
        {
          "internalType": "uint256",
          "name": "",
          "type": "uint256"
        }
      ],
      "stateMutability": "view",
      "type": "function"
    },
    {
      "inputs": [
        {
          "internalType": "address",
          "name": "_account",
          "type": "address"
        }
      ],
      "name": "earned",
      "outputs": [
        {
          "internalType": "uint256",
          "name": "",
          "type": "uint256"
        }
      ],
      "stateMutability": "view",
      "type": "function"
    },
    {
      "inputs": [
        {
          "internalType": "uint256",
          "name": "_amount",
          "type": "uint256"
        }
      ],
      "name": "stake",
      "outputs": [],
      "stateMutability": "nonpayable",
      "type": "function"
    },
    {
      "inputs": [
        {
          "internalType": "uint256",
          "name": "_amount",
          "type": "uint256"
        }
      ],
      "name": "withdraw",
      "outputs": [],
      "stateMutability": "nonpayable",
      "type": "function"
    },
    {
      "inputs": [],
      "name": "getReward",
      "outputs": [],
      "stateMutability": "nonpayable",
      "type": "function"
    }
  ],
  "bytecode": "0x6080604052606460025534801561001557600080fd5b50604051610dff380380610dff833981810160405281019061003791906100d4565b816000806101000a81548173ffffffffffffffffffffffffffffffffffffffff021916908373ffffffffffffffffffffffffffffffffffffffff16021790555080600160006101000a81548173ffffffffffffffffffffffffffffffffffffffff021916908373ffffffffffffffffffffffffffffffffffffffff1602179055505050610159565b6000815190506100ce81610142565b92915050565b600080604083850312156100e757600080fd5b60006100f5858286016100bf565b9250506020610106858286016100bf565b9150509250929050565b600061011b82610122565b9050919050565b600073ffffffffffffffffffffffffffffffffffffffff82169050919050565b61014b81610110565b811461015657600080fd5b50565b610c97806101686000396000f3fe608060405234801561001057600080fd5b506004361061009d5760003560e01c8063523bc7d511610066578063523bc7d51461014657806357a1cf4c14610164578063a694fc3a14610194578063cd3daf9d146101b0578063fbaf894c146101ce5761009d565b80628cc262146100a25780630700037d146100d25780632e1a7d4d14610102578063350fd4071461011e5780633d18b9121461013c575b600080fd5b6100bc60048036038101906100b7919061094d565b6101ec565b6040516100c99190610a46565b60405180910390f35b6100ec60048036038101906100e7919061094d565b6102ee565b6040516100f99190610a46565b60405180910390f35b61011c6004803603810190610117919061099f565b610306565b005b6101266104d1565b6040516101339190610a46565b60405180910390f35b6101446104d7565b005b61014e6106ba565b60405161015b9190610a46565b60405180910390f35b61017e6004803603810190610179919061094d565b6106c0565b60405161018b9190610a46565b60405180910390f35b6101ae60048036038101906101a9919061099f565b6106d8565b005b6101b86108a5565b6040516101c59190610a46565b60405180910390f35b6101d6610908565b6040516101e39190610a46565b60405180910390f35b6000600760008373ffffffffffffffffffffffffffffffffffffffff1673ffffffffffffffffffffffffffffffffffffffff16815260200190815260200160002054670de0b6b3a7640000600660008573ffffffffffffffffffffffffffffffffffffffff1673ffffffffffffffffffffffffffffffffffffffff1681526020019081526020016000205461027f6108a5565b6102899190610b42565b600860008673ffffffffffffffffffffffffffffffffffffffff1673ffffffffffffffffffffffffffffffffffffffff168152602001908152602001600020546102d39190610ae8565b6102dd9190610ab7565b6102e79190610a61565b9050919050565b60076020528060005260406000206000915090505481565b3361030f6108a5565b60048190555042600381905550610325816101ec565b600760008373ffffffffffffffffffffffffffffffffffffffff1673ffffffffffffffffffffffffffffffffffffffff16815260200190815260200160002081905550600454600660008373ffffffffffffffffffffffffffffffffffffffff1673ffffffffffffffffffffffffffffffffffffffff1681526020019081526020016000208190555081600560008282546103c09190610b42565b9250508190555081600860003373ffffffffffffffffffffffffffffffffffffffff1673ffffffffffffffffffffffffffffffffffffffff16815260200190815260200160002060008282546104169190610b42565b92505081905550600160009054906101000a900473ffffffffffffffffffffffffffffffffffffffff1673ffffffffffffffffffffffffffffffffffffffff1663a9059cbb33846040518363ffffffff1660e01b815260040161047a929190610a1d565b602060405180830381600087803b15801561049457600080fd5b505af11580156104a8573d6000803e3d6000fd5b505050506040513d601f19601f820116820180604052508101906104cc9190610976565b505050565b60045481565b336104e06108a5565b600481905550426003819055506104f6816101ec565b600760008373ffffffffffffffffffffffffffffffffffffffff1673ffffffffffffffffffffffffffffffffffffffff16815260200190815260200160002081905550600454600660008373ffffffffffffffffffffffffffffffffffffffff1673ffffffffffffffffffffffffffffffffffffffff168152602001908152602001600020819055506000600760003373ffffffffffffffffffffffffffffffffffffffff1673ffffffffffffffffffffffffffffffffffffffff1681526020019081526020016000205490506000600760003373ffffffffffffffffffffffffffffffffffffffff1673ffffffffffffffffffffffffffffffffffffffff1681526020019081526020016000208190555060008054906101000a900473ffffffffffffffffffffffffffffffffffffffff1673ffffffffffffffffffffffffffffffffffffffff1663a9059cbb33836040518363ffffffff1660e01b8152600401610663929190610a1d565b602060405180830381600087803b15801561067d57600080fd5b505af1158015610691573d6000803e3d6000fd5b505050506040513d601f19601f820116820180604052508101906106b59190610976565b505050565b60025481565b60066020528060005260406000206000915090505481565b336106e16108a5565b600481905550426003819055506106f7816101ec565b600760008373ffffffffffffffffffffffffffffffffffffffff1673ffffffffffffffffffffffffffffffffffffffff16815260200190815260200160002081905550600454600660008373ffffffffffffffffffffffffffffffffffffffff1673ffffffffffffffffffffffffffffffffffffffff1681526020019081526020016000208190555081600560008282546107929190610a61565b9250508190555081600860003373ffffffffffffffffffffffffffffffffffffffff1673ffffffffffffffffffffffffffffffffffffffff16815260200190815260200160002060008282546107e89190610a61565b92505081905550600160009054906101000a900473ffffffffffffffffffffffffffffffffffffffff1673ffffffffffffffffffffffffffffffffffffffff166323b872dd3330856040518463ffffffff1660e01b815260040161084e939291906109e6565b602060405180830381600087803b15801561086857600080fd5b505af115801561087c573d6000803e3d6000fd5b505050506040513d601f19601f820116820180604052508101906108a09190610976565b505050565b60008060055414156108ba5760009050610905565b600554670de0b6b3a7640000600254600354426108d79190610b42565b6108e19190610ae8565b6108eb9190610ae8565b6108f59190610ab7565b6004546109029190610a61565b90505b90565b60035481565b60008135905061091d81610c1c565b92915050565b60008151905061093281610c33565b92915050565b60008135905061094781610c4a565b92915050565b60006020828403121561095f57600080fd5b600061096d8482850161090e565b91505092915050565b60006020828403121561098857600080fd5b600061099684828501610923565b91505092915050565b6000602082840312156109b157600080fd5b60006109bf84828501610938565b91505092915050565b6109d181610b76565b82525050565b6109e081610bb4565b82525050565b60006060820190506109fb60008301866109c8565b610a0860208301856109c8565b610a1560408301846109d7565b949350505050565b6000604082019050610a3260008301856109c8565b610a3f60208301846109d7565b9392505050565b6000602082019050610a5b60008301846109d7565b92915050565b6000610a6c82610bb4565b9150610a7783610bb4565b9250827fffffffffffffffffffffffffffffffffffffffffffffffffffffffffffffffff03821115610aac57610aab610bbe565b5b828201905092915050565b6000610ac282610bb4565b9150610acd83610bb4565b925082610add57610adc610bed565b5b828204905092915050565b6000610af382610bb4565b9150610afe83610bb4565b9250817fffffffffffffffffffffffffffffffffffffffffffffffffffffffffffffffff0483118215151615610b3757610b36610bbe565b5b828202905092915050565b6000610b4d82610bb4565b9150610b5883610bb4565b925082821015610b6b57610b6a610bbe565b5b828203905092915050565b6000610b8182610b94565b9050919050565b60008115159050919050565b600073ffffffffffffffffffffffffffffffffffffffff82169050919050565b6000819050919050565b7f4e487b7100000000000000000000000000000000000000000000000000000000600052601160045260246000fd5b7f4e487b7100000000000000000000000000000000000000000000000000000000600052601260045260246000fd5b610c2581610b76565b8114610c3057600080fd5b50565b610c3c81610b88565b8114610c4757600080fd5b50565b610c5381610bb4565b8114610c5e57600080fd5b5056fea26469706673582212204428a0b7668612d4399c30653d3be84fe0d240d4edd9a4e3e6d8d47d9748ce3364736f6c63430008000033",
  "immutableReferences": {},
  "source": "// SPDX-License-Identifier: None\r\npragma solidity ^0.8;\r\n\r\n// Import IERC20.sol\r\nimport \"@openzeppelin/contracts/token/ERC20/IERC20.sol\";\r\n\r\ncontract StakingRewards {\r\n    IERC20 rewardsToken;\r\n    IERC20 stakingToken;\r\n\r\n    // Variables:\r\n    uint256 public rewardsRate = 100;\r\n    uint256 public lastUpdatedTimestamp;\r\n    uint256 public rewardsPerTokenStored;\r\n\r\n    uint256 private totalSupply;\r\n\r\n    // Mappings:\r\n    mapping(address => uint256) public userRewardsPerTokenDeposited;\r\n    mapping(address => uint256) public rewards;\r\n    // In-accessible mapping for balances -> only accessible to function calls:\r\n    mapping(address => uint256) private balances; // Mapped to amount of STAKING TOKEN inside staking contract\r\n\r\n    constructor(address _rewardsToken, address _stakingToken) {\r\n        rewardsToken = IERC20(_rewardsToken);\r\n        stakingToken = IERC20(_stakingToken);\r\n    }\r\n\r\n    // Calculation Functions For updateRewards:\r\n    function rewardPerToken() public view returns (uint256) {\r\n        if (totalSupply == 0) return 0;\r\n\r\n        // Rewards Per Token = Rewards For each Token Stored + (Time locked * rate) / totalSupply:\r\n        return\r\n            rewardsPerTokenStored +\r\n            (((block.timestamp - lastUpdatedTimestamp) * rewardsRate * 1e18) /\r\n                totalSupply);\r\n    }\r\n\r\n    function earned(address _account) public view returns (uint256) {\r\n        // Calculate earned rewards:\r\n        return\r\n            ((balances[_account] *\r\n                (rewardPerToken() - userRewardsPerTokenDeposited[_account])) /\r\n                1e18) + rewards[_account];\r\n    }\r\n\r\n    // Modifier:\r\n    modifier updateReward(address _account) {\r\n        // Store rewards per token through calculation:\r\n        rewardsPerTokenStored = rewardPerToken();\r\n        // Update last updated time:\r\n        lastUpdatedTimestamp = block.timestamp;\r\n\r\n        // Update Rewards Earned:\r\n        rewards[_account] = earned(_account);\r\n        userRewardsPerTokenDeposited[_account] = rewardsPerTokenStored;\r\n        _;\r\n    }\r\n\r\n    // ACTION Functions:\r\n    function stake(uint256 _amount) external updateReward(msg.sender) {\r\n        // Increment total supply of pool:\r\n        totalSupply += _amount;\r\n        balances[msg.sender] += _amount;\r\n\r\n        // After updating states - transfer STAKING tokens FROM msg.sender TO this smart contract:\r\n        stakingToken.transferFrom(msg.sender, address(this), _amount);\r\n    }\r\n\r\n    function withdraw(uint256 _amount) external updateReward(msg.sender) {\r\n        // Update total supply of pool:\r\n        totalSupply -= _amount;\r\n        balances[msg.sender] -= _amount;\r\n\r\n        // After updating states - transfer staking tokens BACK to msg.sender FROM this smart contract:\r\n        stakingToken.transfer(msg.sender, _amount);\r\n    }\r\n\r\n    function getReward() external updateReward(msg.sender) {\r\n        uint256 rewardAmount = rewards[msg.sender];\r\n        // Update rewards to 0 (since claimed)\r\n        rewards[msg.sender] = 0;\r\n\r\n        // Transfer rewards to account:\r\n        rewardsToken.transfer(msg.sender, rewardAmount);\r\n    }\r\n}\r\n",
  "sourcePath": "C:/Users/victo/SolidityGH/StakingRewardsContract/contracts/Staking.sol",
  "compiler": {
    "name": "solc",
    "version": "0.8.0+commit.c7dfd78e.Emscripten.clang"
  },
  "schemaVersion": "3.4.1",
  "updatedAt": "2021-09-20T07:39:17.278Z",
  "devdoc": {
    "kind": "dev",
    "methods": {},
    "version": 1
  },
  "userdoc": {
    "kind": "user",
    "methods": {},
    "version": 1
  }
}